{
  "_format": "hh-sol-artifact-1",
  "contractName": "NFTMarketPlace",
  "sourceName": "contracts/NFTMarketplace.sol",
  "abi": [
    {
      "inputs": [],
      "stateMutability": "nonpayable",
      "type": "constructor"
    },
    {
      "anonymous": false,
      "inputs": [
        {
          "indexed": true,
          "internalType": "address",
          "name": "owner",
          "type": "address"
        },
        {
          "indexed": true,
          "internalType": "address",
          "name": "approved",
          "type": "address"
        },
        {
          "indexed": true,
          "internalType": "uint256",
          "name": "tokenId",
          "type": "uint256"
        }
      ],
      "name": "Approval",
      "type": "event"
    },
    {
      "anonymous": false,
      "inputs": [
        {
          "indexed": true,
          "internalType": "address",
          "name": "owner",
          "type": "address"
        },
        {
          "indexed": true,
          "internalType": "address",
          "name": "operator",
          "type": "address"
        },
        {
          "indexed": false,
          "internalType": "bool",
          "name": "approved",
          "type": "bool"
        }
      ],
      "name": "ApprovalForAll",
      "type": "event"
    },
    {
      "anonymous": false,
      "inputs": [
        {
          "indexed": false,
          "internalType": "uint256",
          "name": "_fromTokenId",
          "type": "uint256"
        },
        {
          "indexed": false,
          "internalType": "uint256",
          "name": "_toTokenId",
          "type": "uint256"
        }
      ],
      "name": "BatchMetadataUpdate",
      "type": "event"
    },
    {
      "anonymous": false,
      "inputs": [
        {
          "indexed": false,
          "internalType": "uint256",
          "name": "_tokenId",
          "type": "uint256"
        }
      ],
      "name": "MetadataUpdate",
      "type": "event"
    },
    {
      "anonymous": false,
      "inputs": [
        {
          "indexed": true,
          "internalType": "address",
          "name": "from",
          "type": "address"
        },
        {
          "indexed": true,
          "internalType": "address",
          "name": "to",
          "type": "address"
        },
        {
          "indexed": true,
          "internalType": "uint256",
          "name": "tokenId",
          "type": "uint256"
        }
      ],
      "name": "Transfer",
      "type": "event"
    },
    {
      "inputs": [
        {
          "internalType": "string",
          "name": "tokenURI",
          "type": "string"
        },
        {
          "internalType": "uint256",
          "name": "price",
          "type": "uint256"
        }
      ],
      "name": "CreateToken",
      "outputs": [
        {
          "internalType": "uint256",
          "name": "",
          "type": "uint256"
        }
      ],
      "stateMutability": "payable",
      "type": "function"
    },
    {
      "inputs": [
        {
          "internalType": "uint256",
          "name": "",
          "type": "uint256"
        }
      ],
      "name": "IdNOTokens",
      "outputs": [
        {
          "internalType": "uint256",
          "name": "tokenId",
          "type": "uint256"
        },
        {
          "internalType": "address payable",
          "name": "owner",
          "type": "address"
        },
        {
          "internalType": "address payable",
          "name": "seller",
          "type": "address"
        },
        {
          "internalType": "uint256",
          "name": "price",
          "type": "uint256"
        },
        {
          "internalType": "bool",
          "name": "currentlyOpen",
          "type": "bool"
        }
      ],
      "stateMutability": "view",
      "type": "function"
    },
    {
      "inputs": [
        {
          "internalType": "uint256",
          "name": "_listPrice",
          "type": "uint256"
        }
      ],
      "name": "UpdateListPrice",
      "outputs": [],
      "stateMutability": "payable",
      "type": "function"
    },
    {
      "inputs": [
        {
          "internalType": "address",
          "name": "to",
          "type": "address"
        },
        {
          "internalType": "uint256",
          "name": "tokenId",
          "type": "uint256"
        }
      ],
      "name": "approve",
      "outputs": [],
      "stateMutability": "nonpayable",
      "type": "function"
    },
    {
      "inputs": [
        {
          "internalType": "address",
          "name": "owner",
          "type": "address"
        }
      ],
      "name": "balanceOf",
      "outputs": [
        {
          "internalType": "uint256",
          "name": "",
          "type": "uint256"
        }
      ],
      "stateMutability": "view",
      "type": "function"
    },
    {
      "inputs": [
        {
          "internalType": "uint256",
          "name": "tokenId",
          "type": "uint256"
        },
        {
          "internalType": "uint256",
          "name": "price",
          "type": "uint256"
        }
      ],
      "name": "createListedToken",
      "outputs": [],
      "stateMutability": "nonpayable",
      "type": "function"
    },
    {
      "inputs": [
        {
          "internalType": "uint256",
          "name": "tokenid",
          "type": "uint256"
        }
      ],
      "name": "executeSale",
      "outputs": [],
      "stateMutability": "payable",
      "type": "function"
    },
    {
      "inputs": [],
      "name": "getAllNFTs",
      "outputs": [
        {
          "components": [
            {
              "internalType": "uint256",
              "name": "tokenId",
              "type": "uint256"
            },
            {
              "internalType": "address payable",
              "name": "owner",
              "type": "address"
            },
            {
              "internalType": "address payable",
              "name": "seller",
              "type": "address"
            },
            {
              "internalType": "uint256",
              "name": "price",
              "type": "uint256"
            },
            {
              "internalType": "bool",
              "name": "currentlyOpen",
              "type": "bool"
            }
          ],
          "internalType": "struct NFTMarketPlace.ListTokens[]",
          "name": "",
          "type": "tuple[]"
        }
      ],
      "stateMutability": "view",
      "type": "function"
    },
    {
      "inputs": [
        {
          "internalType": "uint256",
          "name": "tokenId",
          "type": "uint256"
        }
      ],
      "name": "getApproved",
      "outputs": [
        {
          "internalType": "address",
          "name": "",
          "type": "address"
        }
      ],
      "stateMutability": "view",
      "type": "function"
    },
    {
      "inputs": [],
      "name": "getCurrentToken",
      "outputs": [
        {
          "internalType": "uint256",
          "name": "",
          "type": "uint256"
        }
      ],
      "stateMutability": "view",
      "type": "function"
    },
    {
      "inputs": [],
      "name": "getLatesttoListedTokens",
      "outputs": [
        {
          "components": [
            {
              "internalType": "uint256",
              "name": "tokenId",
              "type": "uint256"
            },
            {
              "internalType": "address payable",
              "name": "owner",
              "type": "address"
            },
            {
              "internalType": "address payable",
              "name": "seller",
              "type": "address"
            },
            {
              "internalType": "uint256",
              "name": "price",
              "type": "uint256"
            },
            {
              "internalType": "bool",
              "name": "currentlyOpen",
              "type": "bool"
            }
          ],
          "internalType": "struct NFTMarketPlace.ListTokens",
          "name": "",
          "type": "tuple"
        }
      ],
      "stateMutability": "view",
      "type": "function"
    },
    {
      "inputs": [],
      "name": "getListPrice",
      "outputs": [
        {
          "internalType": "uint256",
          "name": "",
          "type": "uint256"
        }
      ],
      "stateMutability": "view",
      "type": "function"
    },
    {
      "inputs": [
        {
          "internalType": "uint256",
          "name": "TOkId",
          "type": "uint256"
        }
      ],
      "name": "getListedTokenForid",
      "outputs": [
        {
          "components": [
            {
              "internalType": "uint256",
              "name": "tokenId",
              "type": "uint256"
            },
            {
              "internalType": "address payable",
              "name": "owner",
              "type": "address"
            },
            {
              "internalType": "address payable",
              "name": "seller",
              "type": "address"
            },
            {
              "internalType": "uint256",
              "name": "price",
              "type": "uint256"
            },
            {
              "internalType": "bool",
              "name": "currentlyOpen",
              "type": "bool"
            }
          ],
          "internalType": "struct NFTMarketPlace.ListTokens",
          "name": "",
          "type": "tuple"
        }
      ],
      "stateMutability": "view",
      "type": "function"
    },
    {
      "inputs": [],
      "name": "getMyNFts",
      "outputs": [
        {
          "components": [
            {
              "internalType": "uint256",
              "name": "tokenId",
              "type": "uint256"
            },
            {
              "internalType": "address payable",
              "name": "owner",
              "type": "address"
            },
            {
              "internalType": "address payable",
              "name": "seller",
              "type": "address"
            },
            {
              "internalType": "uint256",
              "name": "price",
              "type": "uint256"
            },
            {
              "internalType": "bool",
              "name": "currentlyOpen",
              "type": "bool"
            }
          ],
          "internalType": "struct NFTMarketPlace.ListTokens[]",
          "name": "",
          "type": "tuple[]"
        }
      ],
      "stateMutability": "view",
      "type": "function"
    },
    {
      "inputs": [
        {
          "internalType": "address",
          "name": "owner",
          "type": "address"
        },
        {
          "internalType": "address",
          "name": "operator",
          "type": "address"
        }
      ],
      "name": "isApprovedForAll",
      "outputs": [
        {
          "internalType": "bool",
          "name": "",
          "type": "bool"
        }
      ],
      "stateMutability": "view",
      "type": "function"
    },
    {
      "inputs": [],
      "name": "itemsSold_",
      "outputs": [
        {
          "internalType": "uint256",
          "name": "_value",
          "type": "uint256"
        }
      ],
      "stateMutability": "view",
      "type": "function"
    },
    {
      "inputs": [],
      "name": "name",
      "outputs": [
        {
          "internalType": "string",
          "name": "",
          "type": "string"
        }
      ],
      "stateMutability": "view",
      "type": "function"
    },
    {
      "inputs": [
        {
          "internalType": "uint256",
          "name": "tokenId",
          "type": "uint256"
        }
      ],
      "name": "ownerOf",
      "outputs": [
        {
          "internalType": "address",
          "name": "",
          "type": "address"
        }
      ],
      "stateMutability": "view",
      "type": "function"
    },
    {
      "inputs": [
        {
          "internalType": "address",
          "name": "from",
          "type": "address"
        },
        {
          "internalType": "address",
          "name": "to",
          "type": "address"
        },
        {
          "internalType": "uint256",
          "name": "tokenId",
          "type": "uint256"
        }
      ],
      "name": "safeTransferFrom",
      "outputs": [],
      "stateMutability": "nonpayable",
      "type": "function"
    },
    {
      "inputs": [
        {
          "internalType": "address",
          "name": "from",
          "type": "address"
        },
        {
          "internalType": "address",
          "name": "to",
          "type": "address"
        },
        {
          "internalType": "uint256",
          "name": "tokenId",
          "type": "uint256"
        },
        {
          "internalType": "bytes",
          "name": "data",
          "type": "bytes"
        }
      ],
      "name": "safeTransferFrom",
      "outputs": [],
      "stateMutability": "nonpayable",
      "type": "function"
    },
    {
      "inputs": [
        {
          "internalType": "address",
          "name": "operator",
          "type": "address"
        },
        {
          "internalType": "bool",
          "name": "approved",
          "type": "bool"
        }
      ],
      "name": "setApprovalForAll",
      "outputs": [],
      "stateMutability": "nonpayable",
      "type": "function"
    },
    {
      "inputs": [
        {
          "internalType": "bytes4",
          "name": "interfaceId",
          "type": "bytes4"
        }
      ],
      "name": "supportsInterface",
      "outputs": [
        {
          "internalType": "bool",
          "name": "",
          "type": "bool"
        }
      ],
      "stateMutability": "view",
      "type": "function"
    },
    {
      "inputs": [],
      "name": "symbol",
      "outputs": [
        {
          "internalType": "string",
          "name": "",
          "type": "string"
        }
      ],
      "stateMutability": "view",
      "type": "function"
    },
    {
      "inputs": [
        {
          "internalType": "uint256",
          "name": "tokenId",
          "type": "uint256"
        }
      ],
      "name": "tokenURI",
      "outputs": [
        {
          "internalType": "string",
          "name": "",
          "type": "string"
        }
      ],
      "stateMutability": "view",
      "type": "function"
    },
    {
      "inputs": [],
      "name": "token_ID",
      "outputs": [
        {
          "internalType": "uint256",
          "name": "_value",
          "type": "uint256"
        }
      ],
      "stateMutability": "view",
      "type": "function"
    },
    {
      "inputs": [
        {
          "internalType": "address",
          "name": "from",
          "type": "address"
        },
        {
          "internalType": "address",
          "name": "to",
          "type": "address"
        },
        {
          "internalType": "uint256",
          "name": "tokenId",
          "type": "uint256"
        }
      ],
      "name": "transferFrom",
      "outputs": [],
      "stateMutability": "nonpayable",
      "type": "function"
    }
  ],
  "bytecode": "0x6080604052662386f26fc10000600a553480156200001c57600080fd5b50604080518082018252600e81526d4e46544d61726b6574506c61636560901b6020808301918252835180850190945260048452634e46544d60e01b9084015281519192916200006f91600091620000a0565b50805162000085906001906020840190620000a0565b5050600780546001600160a01b031916331790555062000183565b828054620000ae9062000146565b90600052602060002090601f016020900481019282620000d257600085556200011d565b82601f10620000ed57805160ff19168380011785556200011d565b828001600101855582156200011d579182015b828111156200011d57825182559160200191906001019062000100565b506200012b9291506200012f565b5090565b5b808211156200012b576000815560010162000130565b600181811c908216806200015b57607f821691505b602082108114156200017d57634e487b7160e01b600052602260045260246000fd5b50919050565b61211e80620001936000396000f3fe6080604052600436106101815760003560e01c806395d89b41116100d1578063c87b56dd1161008a578063e7bdcb7511610064578063e7bdcb75146104ae578063e985e9c5146104c5578063ef2d17461461050e578063fd34533b1461052357600080fd5b8063c87b56dd146103ea578063d7d3cdb11461040a578063e0391b091461049957600080fd5b806395d89b411461033e5780639b1225c414610353578063a22cb46514610366578063a8af241314610386578063afce3c4e1461039d578063b88d4fde146103ca57600080fd5b806355524f561161013e5780636b6292bd116101185780636b6292bd146102d657806370a08231146102e95780638284fe29146103095780638860c07d1461031c57600080fd5b806355524f56146102775780636352211e1461029757806368f1945f146102b757600080fd5b806301ffc9a71461018657806306fdde03146101bb578063081812fc146101dd578063095ea7b31461021557806323b872dd1461023757806342842e0e14610257575b600080fd5b34801561019257600080fd5b506101a66101a1366004611b15565b610538565b60405190151581526020015b60405180910390f35b3480156101c757600080fd5b506101d0610563565b6040516101b29190611b8a565b3480156101e957600080fd5b506101fd6101f8366004611b9d565b6105f5565b6040516001600160a01b0390911681526020016101b2565b34801561022157600080fd5b50610235610230366004611bd2565b61061c565b005b34801561024357600080fd5b50610235610252366004611bfc565b610737565b34801561026357600080fd5b50610235610272366004611bfc565b610768565b34801561028357600080fd5b50610235610292366004611c38565b610783565b3480156102a357600080fd5b506101fd6102b2366004611b9d565b610824565b3480156102c357600080fd5b50600a545b6040519081526020016101b2565b6102356102e4366004611b9d565b610884565b3480156102f557600080fd5b506102c8610304366004611c5a565b6108db565b6102c8610317366004611d01565b610961565b34801561032857600080fd5b506103316109a3565b6040516101b29190611d9a565b34801561034a57600080fd5b506101d0610bd6565b610235610361366004611b9d565b610be5565b34801561037257600080fd5b50610235610381366004611de8565b610d2b565b34801561039257600080fd5b506008546102c89081565b3480156103a957600080fd5b506103bd6103b8366004611b9d565b610d36565b6040516101b29190611e24565b3480156103d657600080fd5b506102356103e5366004611e32565b610da0565b3480156103f657600080fd5b506101d0610405366004611b9d565b610dd2565b34801561041657600080fd5b50610463610425366004611b9d565b600b602052600090815260409020805460018201546002830154600384015460049094015492936001600160a01b0392831693929091169160ff1685565b604080519586526001600160a01b039485166020870152929093169184019190915260608301521515608082015260a0016101b2565b3480156104a557600080fd5b50610331610ee3565b3480156104ba57600080fd5b506009546102c89081565b3480156104d157600080fd5b506101a66104e0366004611eae565b6001600160a01b03918216600090815260056020908152604080832093909416825291909152205460ff1690565b34801561051a57600080fd5b506102c861100e565b34801561052f57600080fd5b506103bd61101e565b60006001600160e01b03198216632483248360e11b148061055d575061055d82611095565b92915050565b60606000805461057290611ee1565b80601f016020809104026020016040519081016040528092919081815260200182805461059e90611ee1565b80156105eb5780601f106105c0576101008083540402835291602001916105eb565b820191906000526020600020905b8154815290600101906020018083116105ce57829003601f168201915b5050505050905090565b6000610600826110e5565b506000908152600460205260409020546001600160a01b031690565b600061062782610824565b9050806001600160a01b0316836001600160a01b0316141561069a5760405162461bcd60e51b815260206004820152602160248201527f4552433732313a20617070726f76616c20746f2063757272656e74206f776e656044820152603960f91b60648201526084015b60405180910390fd5b336001600160a01b03821614806106b657506106b681336104e0565b6107285760405162461bcd60e51b815260206004820152603d60248201527f4552433732313a20617070726f76652063616c6c6572206973206e6f7420746f60448201527f6b656e206f776e6572206f7220617070726f76656420666f7220616c6c0000006064820152608401610691565b6107328383611147565b505050565b61074133826111b5565b61075d5760405162461bcd60e51b815260040161069190611f1c565b610732838383611233565b61073283838360405180602001604052806000815250610da0565b6040805160a081018252838152306020808301828152338486018181526060860188815260016080880181815260008c8152600b9097529890952096518755925193860180546001600160a01b039586166001600160a01b03199182161790915590516002870180549190951691161790925551600384015592516004909201805492151560ff1990931692909217909155610820919084611233565b5050565b6000818152600260205260408120546001600160a01b03168061055d5760405162461bcd60e51b8152602060048201526018602482015277115490cdcc8c4e881a5b9d985b1a59081d1bdad95b88125160421b6044820152606401610691565b6007546001600160a01b031633146108d65760405162461bcd60e51b81526020600482015260156024820152743cb7ba9030b932903737ba103a34329037bbb732b960591b6044820152606401610691565b600a55565b60006001600160a01b0382166109455760405162461bcd60e51b815260206004820152602960248201527f4552433732313a2061646472657373207a65726f206973206e6f7420612076616044820152683634b21037bbb732b960b91b6064820152608401610691565b506001600160a01b031660009081526003602052604090205490565b6000610971600880546001019055565b600061097c60085490565b90506109883382611397565b61099281856113b1565b61099c8184610783565b9392505050565b606060006109b060085490565b905060008080805b84811015610a4e5733600b6000836109cf81611f7f565b9082526020820192909252604001600020600101549092506001600160a01b03161480610a29575033600b600083610a0681611f7f565b9082526020820192909252604001600020600201549092506001600160a01b0316145b15610a3c57610a39600185611f9a565b93505b80610a4681611f7f565b9150506109b8565b5060008367ffffffffffffffff811115610a6a57610a6a611c75565b604051908082528060200260200182016040528015610aa357816020015b610a90611a38565b815260200190600190039081610a885790505b50905060005b85811015610bcc5733600b600083610ac081611f7f565b9082526020820192909252604001600020600101549092506001600160a01b03161480610b1a575033600b600083610af781611f7f565b9082526020820192909252604001600020600201549092506001600160a01b0316145b15610bba57610b2a816001611f9a565b6000818152600b6020908152604091829020825160a0810184528154815260018201546001600160a01b039081169382019390935260028201549092169282019290925260038201546060820152600482015460ff161515608082015284519295509091849087908110610ba057610ba0611fb2565b6020908102919091010152610bb6600186611f9a565b9450505b80610bc481611f7f565b915050610aa9565b5095945050505050565b60606001805461057290611ee1565b6000818152600b6020526040902060038101546002909101546001600160a01b0316348214610c605760405162461bcd60e51b815260206004820152602160248201527f506c65617365207472616e736665722074686520656e6f75676820616d6f756e6044820152601d60fa1b6064820152608401610691565b6000838152600b6020526040902060048101805460ff1916600117905560020180546001600160a01b03191633179055610c9e600980546001019055565b610ca9303385611233565b610cb3308461061c565b600754600a546040516001600160a01b039092169181156108fc0291906000818181858888f19350505050158015610cef573d6000803e3d6000fd5b506040516001600160a01b038216903480156108fc02916000818181858888f19350505050158015610d25573d6000803e3d6000fd5b50505050565b610820338383611483565b610d3e611a38565b506000908152600b6020908152604091829020825160a0810184528154815260018201546001600160a01b03908116938201939093526002820154909216928201929092526003820154606082015260049091015460ff161515608082015290565b610daa33836111b5565b610dc65760405162461bcd60e51b815260040161069190611f1c565b610d2584848484611552565b6060610ddd826110e5565b60008281526006602052604081208054610df690611ee1565b80601f0160208091040260200160405190810160405280929190818152602001828054610e2290611ee1565b8015610e6f5780601f10610e4457610100808354040283529160200191610e6f565b820191906000526020600020905b815481529060010190602001808311610e5257829003601f168201915b505050505090506000610e8d60408051602081019091526000815290565b9050805160001415610ea0575092915050565b815115610ed2578082604051602001610eba929190611fc8565b60405160208183030381529060405292505050919050565b610edb84611585565b949350505050565b60606000610ef060085490565b905060008167ffffffffffffffff811115610f0d57610f0d611c75565b604051908082528060200260200182016040528015610f4657816020015b610f33611a38565b815260200190600190039081610f2b5790505b509050600080805b848110156110045780610f6081611f7f565b6000828152600b6020908152604091829020825160a0810184528154815260018201546001600160a01b039081169382019390935260028201549092169282019290925260038201546060820152600482015460ff1615156080820152875193955091935091869086908110610fd857610fd8611fb2565b6020908102919091010152610fee600185611f9a565b9350508080610ffc90611f7f565b915050610f4e565b5091949350505050565b600061101960085490565b905090565b611026611a38565b600061103160085490565b6000908152600b6020908152604091829020825160a0810184528154815260018201546001600160a01b03908116938201939093526002820154909216928201929092526003820154606082015260049091015460ff161515608082015292915050565b60006001600160e01b031982166380ac58cd60e01b14806110c657506001600160e01b03198216635b5e139f60e01b145b8061055d57506301ffc9a760e01b6001600160e01b031983161461055d565b6000818152600260205260409020546001600160a01b03166111445760405162461bcd60e51b8152602060048201526018602482015277115490cdcc8c4e881a5b9d985b1a59081d1bdad95b88125160421b6044820152606401610691565b50565b600081815260046020526040902080546001600160a01b0319166001600160a01b038416908117909155819061117c82610824565b6001600160a01b03167f8c5be1e5ebec7d5bd14f71427d1e84f3dd0314c0f7b2291e5b200ac8c7c3b92560405160405180910390a45050565b6000806111c183610824565b9050806001600160a01b0316846001600160a01b0316148061120857506001600160a01b0380821660009081526005602090815260408083209388168352929052205460ff165b80610edb5750836001600160a01b0316611221846105f5565b6001600160a01b031614949350505050565b826001600160a01b031661124682610824565b6001600160a01b03161461126c5760405162461bcd60e51b815260040161069190611ff7565b6001600160a01b0382166112ce5760405162461bcd60e51b8152602060048201526024808201527f4552433732313a207472616e7366657220746f20746865207a65726f206164646044820152637265737360e01b6064820152608401610691565b826001600160a01b03166112e182610824565b6001600160a01b0316146113075760405162461bcd60e51b815260040161069190611ff7565b600081815260046020908152604080832080546001600160a01b03199081169091556001600160a01b0387811680865260038552838620805460001901905590871680865283862080546001019055868652600290945282852080549092168417909155905184937fddf252ad1be2c89b69c2b068fc378daa952ba7f163c4a11628f55a4df523b3ef91a4505050565b6108208282604051806020016040528060008152506115f8565b6000828152600260205260409020546001600160a01b031661142c5760405162461bcd60e51b815260206004820152602e60248201527f45524337323155524953746f726167653a2055524920736574206f66206e6f6e60448201526d32bc34b9ba32b73a103a37b5b2b760911b6064820152608401610691565b6000828152600660209081526040909120825161144b92840190611a66565b506040518281527ff8e1a15aba9398e019f0b49df1a4fde98ee17ae345cb5f6b5e2c27f5033e8ce79060200160405180910390a15050565b816001600160a01b0316836001600160a01b031614156114e55760405162461bcd60e51b815260206004820152601960248201527f4552433732313a20617070726f766520746f2063616c6c6572000000000000006044820152606401610691565b6001600160a01b03838116600081815260056020908152604080832094871680845294825291829020805460ff191686151590811790915591519182527f17307eab39ab6107e8899845ad3d59bd9653f200f220920489ca2b5937696c31910160405180910390a3505050565b61155d848484611233565b6115698484848461162b565b610d255760405162461bcd60e51b81526004016106919061203c565b6060611590826110e5565b60006115a760408051602081019091526000815290565b905060008151116115c7576040518060200160405280600081525061099c565b806115d184611738565b6040516020016115e2929190611fc8565b6040516020818303038152906040529392505050565b61160283836117d5565b61160f600084848461162b565b6107325760405162461bcd60e51b81526004016106919061203c565b60006001600160a01b0384163b1561172d57604051630a85bd0160e11b81526001600160a01b0385169063150b7a029061166f90339089908890889060040161208e565b602060405180830381600087803b15801561168957600080fd5b505af19250505080156116b9575060408051601f3d908101601f191682019092526116b6918101906120cb565b60015b611713573d8080156116e7576040519150601f19603f3d011682016040523d82523d6000602084013e6116ec565b606091505b50805161170b5760405162461bcd60e51b81526004016106919061203c565b805181602001fd5b6001600160e01b031916630a85bd0160e11b149050610edb565b506001949350505050565b6060600061174583611960565b600101905060008167ffffffffffffffff81111561176557611765611c75565b6040519080825280601f01601f19166020018201604052801561178f576020820181803683370190505b5090508181016020015b600019016f181899199a1a9b1b9c1cb0b131b232b360811b600a86061a8153600a85049450846117c8576117cd565b611799565b509392505050565b6001600160a01b03821661182b5760405162461bcd60e51b815260206004820181905260248201527f4552433732313a206d696e7420746f20746865207a65726f20616464726573736044820152606401610691565b6000818152600260205260409020546001600160a01b0316156118905760405162461bcd60e51b815260206004820152601c60248201527f4552433732313a20746f6b656e20616c7265616479206d696e746564000000006044820152606401610691565b6000818152600260205260409020546001600160a01b0316156118f55760405162461bcd60e51b815260206004820152601c60248201527f4552433732313a20746f6b656e20616c7265616479206d696e746564000000006044820152606401610691565b6001600160a01b038216600081815260036020908152604080832080546001019055848352600290915280822080546001600160a01b0319168417905551839291907fddf252ad1be2c89b69c2b068fc378daa952ba7f163c4a11628f55a4df523b3ef908290a45050565b60008072184f03e93ff9f4daa797ed6e38ed64bf6a1f0160401b831061199f5772184f03e93ff9f4daa797ed6e38ed64bf6a1f0160401b830492506040015b6d04ee2d6d415b85acef810000000083106119cb576d04ee2d6d415b85acef8100000000830492506020015b662386f26fc1000083106119e957662386f26fc10000830492506010015b6305f5e1008310611a01576305f5e100830492506008015b6127108310611a1557612710830492506004015b60648310611a27576064830492506002015b600a831061055d5760010192915050565b6040805160a08101825260008082526020820181905291810182905260608101829052608081019190915290565b828054611a7290611ee1565b90600052602060002090601f016020900481019282611a945760008555611ada565b82601f10611aad57805160ff1916838001178555611ada565b82800160010185558215611ada579182015b82811115611ada578251825591602001919060010190611abf565b50611ae6929150611aea565b5090565b5b80821115611ae65760008155600101611aeb565b6001600160e01b03198116811461114457600080fd5b600060208284031215611b2757600080fd5b813561099c81611aff565b60005b83811015611b4d578181015183820152602001611b35565b83811115610d255750506000910152565b60008151808452611b76816020860160208601611b32565b601f01601f19169290920160200192915050565b60208152600061099c6020830184611b5e565b600060208284031215611baf57600080fd5b5035919050565b80356001600160a01b0381168114611bcd57600080fd5b919050565b60008060408385031215611be557600080fd5b611bee83611bb6565b946020939093013593505050565b600080600060608486031215611c1157600080fd5b611c1a84611bb6565b9250611c2860208501611bb6565b9150604084013590509250925092565b60008060408385031215611c4b57600080fd5b50508035926020909101359150565b600060208284031215611c6c57600080fd5b61099c82611bb6565b634e487b7160e01b600052604160045260246000fd5b600067ffffffffffffffff80841115611ca657611ca6611c75565b604051601f8501601f19908116603f01168101908282118183101715611cce57611cce611c75565b81604052809350858152868686011115611ce757600080fd5b858560208301376000602087830101525050509392505050565b60008060408385031215611d1457600080fd5b823567ffffffffffffffff811115611d2b57600080fd5b8301601f81018513611d3c57600080fd5b611d4b85823560208401611c8b565b95602094909401359450505050565b805182526020808201516001600160a01b039081169184019190915260408083015190911690830152606080820151908301526080908101511515910152565b6020808252825182820181905260009190848201906040850190845b81811015611ddc57611dc9838551611d5a565b9284019260a09290920191600101611db6565b50909695505050505050565b60008060408385031215611dfb57600080fd5b611e0483611bb6565b915060208301358015158114611e1957600080fd5b809150509250929050565b60a0810161055d8284611d5a565b60008060008060808587031215611e4857600080fd5b611e5185611bb6565b9350611e5f60208601611bb6565b925060408501359150606085013567ffffffffffffffff811115611e8257600080fd5b8501601f81018713611e9357600080fd5b611ea287823560208401611c8b565b91505092959194509250565b60008060408385031215611ec157600080fd5b611eca83611bb6565b9150611ed860208401611bb6565b90509250929050565b600181811c90821680611ef557607f821691505b60208210811415611f1657634e487b7160e01b600052602260045260246000fd5b50919050565b6020808252602d908201527f4552433732313a2063616c6c6572206973206e6f7420746f6b656e206f776e6560408201526c1c881bdc88185c1c1c9bdd9959609a1b606082015260800190565b634e487b7160e01b600052601160045260246000fd5b6000600019821415611f9357611f93611f69565b5060010190565b60008219821115611fad57611fad611f69565b500190565b634e487b7160e01b600052603260045260246000fd5b60008351611fda818460208801611b32565b835190830190611fee818360208801611b32565b01949350505050565b60208082526025908201527f4552433732313a207472616e736665722066726f6d20696e636f72726563742060408201526437bbb732b960d91b606082015260800190565b60208082526032908201527f4552433732313a207472616e7366657220746f206e6f6e20455243373231526560408201527131b2b4bb32b91034b6b83632b6b2b73a32b960711b606082015260800190565b6001600160a01b03858116825284166020820152604081018390526080606082018190526000906120c190830184611b5e565b9695505050505050565b6000602082840312156120dd57600080fd5b815161099c81611aff56fea2646970667358221220d6e4504c365ab6338682b148f7dec20c4b9bf33493fb2b2c0965e3643511744664736f6c63430008090033",
  "linkReferences": {},
  "deployedLinkReferences": {}
}